{
  "_format": "hh-sol-artifact-1",
  "contractName": "ArticleManager",
  "sourceName": "contracts/content/ArticleManager.sol",
  "abi": [
    {
      "inputs": [
        {
          "internalType": "address",
          "name": "_stakingManager",
          "type": "address"
        }
      ],
      "stateMutability": "nonpayable",
      "type": "constructor"
    },
    {
      "anonymous": false,
      "inputs": [
        {
          "indexed": true,
          "internalType": "uint256",
          "name": "articleId",
          "type": "uint256"
        },
        {
          "indexed": true,
          "internalType": "address",
          "name": "author",
          "type": "address"
        },
        {
          "indexed": false,
          "internalType": "string",
          "name": "walrusHash",
          "type": "string"
        },
        {
          "indexed": false,
          "internalType": "uint256",
          "name": "stake",
          "type": "uint256"
        }
      ],
      "name": "ArticleCreated",
      "type": "event"
    },
    {
      "anonymous": false,
      "inputs": [
        {
          "indexed": true,
          "internalType": "uint256",
          "name": "articleId",
          "type": "uint256"
        },
        {
          "indexed": false,
          "internalType": "enum ArticleManager.ArticleStatus",
          "name": "oldStatus",
          "type": "uint8"
        },
        {
          "indexed": false,
          "internalType": "enum ArticleManager.ArticleStatus",
          "name": "newStatus",
          "type": "uint8"
        }
      ],
      "name": "ArticleStatusChanged",
      "type": "event"
    },
    {
      "anonymous": false,
      "inputs": [
        {
          "indexed": true,
          "internalType": "uint256",
          "name": "articleId",
          "type": "uint256"
        },
        {
          "indexed": false,
          "internalType": "uint256",
          "name": "newVersion",
          "type": "uint256"
        },
        {
          "indexed": false,
          "internalType": "string",
          "name": "newWalrusHash",
          "type": "string"
        }
      ],
      "name": "ArticleUpdated",
      "type": "event"
    },
    {
      "anonymous": false,
      "inputs": [
        {
          "indexed": true,
          "internalType": "uint256",
          "name": "articleId",
          "type": "uint256"
        },
        {
          "indexed": false,
          "internalType": "string",
          "name": "mediaHash",
          "type": "string"
        }
      ],
      "name": "MediaAttached",
      "type": "event"
    },
    {
      "anonymous": false,
      "inputs": [
        {
          "indexed": true,
          "internalType": "uint256",
          "name": "articleId",
          "type": "uint256"
        },
        {
          "indexed": false,
          "internalType": "uint256",
          "name": "oldStake",
          "type": "uint256"
        },
        {
          "indexed": false,
          "internalType": "uint256",
          "name": "newStake",
          "type": "uint256"
        }
      ],
      "name": "StakeAdjusted",
      "type": "event"
    },
    {
      "anonymous": false,
      "inputs": [
        {
          "indexed": false,
          "internalType": "address",
          "name": "oldManager",
          "type": "address"
        },
        {
          "indexed": false,
          "internalType": "address",
          "name": "newManager",
          "type": "address"
        }
      ],
      "name": "StakingManagerUpdated",
      "type": "event"
    },
    {
      "stateMutability": "payable",
      "type": "fallback"
    },
    {
      "inputs": [
        {
          "internalType": "uint256",
          "name": "articleId",
          "type": "uint256"
        },
        {
          "internalType": "uint256",
          "name": "newStake",
          "type": "uint256"
        }
      ],
      "name": "adjustStake",
      "outputs": [],
      "stateMutability": "nonpayable",
      "type": "function"
    },
    {
      "inputs": [
        {
          "internalType": "uint256",
          "name": "articleId",
          "type": "uint256"
        }
      ],
      "name": "articleExists",
      "outputs": [
        {
          "internalType": "bool",
          "name": "",
          "type": "bool"
        }
      ],
      "stateMutability": "view",
      "type": "function"
    },
    {
      "inputs": [
        {
          "internalType": "uint256",
          "name": "",
          "type": "uint256"
        },
        {
          "internalType": "uint256",
          "name": "",
          "type": "uint256"
        }
      ],
      "name": "articleVersions",
      "outputs": [
        {
          "internalType": "string",
          "name": "",
          "type": "string"
        }
      ],
      "stateMutability": "view",
      "type": "function"
    },
    {
      "inputs": [
        {
          "internalType": "uint256",
          "name": "",
          "type": "uint256"
        }
      ],
      "name": "articles",
      "outputs": [
        {
          "internalType": "uint256",
          "name": "id",
          "type": "uint256"
        },
        {
          "internalType": "address",
          "name": "author",
          "type": "address"
        },
        {
          "internalType": "string",
          "name": "title",
          "type": "string"
        },
        {
          "internalType": "string",
          "name": "walrusHash",
          "type": "string"
        },
        {
          "internalType": "uint256",
          "name": "timestamp",
          "type": "uint256"
        },
        {
          "internalType": "enum ArticleManager.ArticleStatus",
          "name": "status",
          "type": "uint8"
        },
        {
          "internalType": "uint256",
          "name": "stake",
          "type": "uint256"
        },
        {
          "internalType": "uint256",
          "name": "version",
          "type": "uint256"
        },
        {
          "internalType": "string",
          "name": "metadata",
          "type": "string"
        }
      ],
      "stateMutability": "view",
      "type": "function"
    },
    {
      "inputs": [
        {
          "internalType": "address",
          "name": "",
          "type": "address"
        },
        {
          "internalType": "uint256",
          "name": "",
          "type": "uint256"
        }
      ],
      "name": "articlesByAuthor",
      "outputs": [
        {
          "internalType": "uint256",
          "name": "",
          "type": "uint256"
        }
      ],
      "stateMutability": "view",
      "type": "function"
    },
    {
      "inputs": [
        {
          "internalType": "uint256",
          "name": "",
          "type": "uint256"
        },
        {
          "internalType": "uint256",
          "name": "",
          "type": "uint256"
        }
      ],
      "name": "articlesByDate",
      "outputs": [
        {
          "internalType": "uint256",
          "name": "",
          "type": "uint256"
        }
      ],
      "stateMutability": "view",
      "type": "function"
    },
    {
      "inputs": [
        {
          "internalType": "uint256",
          "name": "articleId",
          "type": "uint256"
        },
        {
          "internalType": "string",
          "name": "mediaHash",
          "type": "string"
        },
        {
          "internalType": "string",
          "name": "contentType",
          "type": "string"
        }
      ],
      "name": "attachMedia",
      "outputs": [],
      "stateMutability": "nonpayable",
      "type": "function"
    },
    {
      "inputs": [
        {
          "internalType": "uint256",
          "name": "articleId",
          "type": "uint256"
        },
        {
          "internalType": "enum ArticleManager.ArticleStatus",
          "name": "newStatus",
          "type": "uint8"
        }
      ],
      "name": "changeArticleStatus",
      "outputs": [],
      "stateMutability": "nonpayable",
      "type": "function"
    },
    {
      "inputs": [
        {
          "internalType": "string",
          "name": "title",
          "type": "string"
        },
        {
          "internalType": "string",
          "name": "walrusHash",
          "type": "string"
        },
        {
          "internalType": "string",
          "name": "metadata",
          "type": "string"
        }
      ],
      "name": "createArticle",
      "outputs": [
        {
          "internalType": "uint256",
          "name": "",
          "type": "uint256"
        }
      ],
      "stateMutability": "payable",
      "type": "function"
    },
    {
      "inputs": [],
      "name": "emergencyWithdraw",
      "outputs": [],
      "stateMutability": "nonpayable",
      "type": "function"
    },
    {
      "inputs": [
        {
          "internalType": "uint256",
          "name": "articleId",
          "type": "uint256"
        }
      ],
      "name": "getArticle",
      "outputs": [
        {
          "components": [
            {
              "internalType": "uint256",
              "name": "id",
              "type": "uint256"
            },
            {
              "internalType": "address",
              "name": "author",
              "type": "address"
            },
            {
              "internalType": "string",
              "name": "title",
              "type": "string"
            },
            {
              "internalType": "string",
              "name": "walrusHash",
              "type": "string"
            },
            {
              "internalType": "uint256",
              "name": "timestamp",
              "type": "uint256"
            },
            {
              "internalType": "enum ArticleManager.ArticleStatus",
              "name": "status",
              "type": "uint8"
            },
            {
              "internalType": "uint256",
              "name": "stake",
              "type": "uint256"
            },
            {
              "internalType": "uint256",
              "name": "version",
              "type": "uint256"
            },
            {
              "internalType": "string[]",
              "name": "mediaHashes",
              "type": "string[]"
            },
            {
              "internalType": "string",
              "name": "metadata",
              "type": "string"
            }
          ],
          "internalType": "struct ArticleManager.Article",
          "name": "",
          "type": "tuple"
        }
      ],
      "stateMutability": "view",
      "type": "function"
    },
    {
      "inputs": [
        {
          "internalType": "uint256",
          "name": "articleId",
          "type": "uint256"
        }
      ],
      "name": "getArticleMedia",
      "outputs": [
        {
          "internalType": "string[]",
          "name": "",
          "type": "string[]"
        }
      ],
      "stateMutability": "view",
      "type": "function"
    },
    {
      "inputs": [
        {
          "internalType": "uint256",
          "name": "articleId",
          "type": "uint256"
        },
        {
          "internalType": "uint256",
          "name": "version",
          "type": "uint256"
        }
      ],
      "name": "getArticleVersion",
      "outputs": [
        {
          "internalType": "string",
          "name": "",
          "type": "string"
        }
      ],
      "stateMutability": "view",
      "type": "function"
    },
    {
      "inputs": [
        {
          "internalType": "address",
          "name": "author",
          "type": "address"
        }
      ],
      "name": "getArticlesByAuthor",
      "outputs": [
        {
          "internalType": "uint256[]",
          "name": "",
          "type": "uint256[]"
        }
      ],
      "stateMutability": "view",
      "type": "function"
    },
    {
      "inputs": [
        {
          "internalType": "uint256",
          "name": "date",
          "type": "uint256"
        }
      ],
      "name": "getArticlesByDate",
      "outputs": [
        {
          "internalType": "uint256[]",
          "name": "",
          "type": "uint256[]"
        }
      ],
      "stateMutability": "view",
      "type": "function"
    },
    {
      "inputs": [
        {
          "internalType": "enum ArticleManager.ArticleStatus",
          "name": "status",
          "type": "uint8"
        }
      ],
      "name": "getArticlesByStatus",
      "outputs": [
        {
          "internalType": "uint256[]",
          "name": "",
          "type": "uint256[]"
        }
      ],
      "stateMutability": "view",
      "type": "function"
    },
    {
      "inputs": [
        {
          "internalType": "string",
          "name": "mediaHash",
          "type": "string"
        }
      ],
      "name": "getMediaContentType",
      "outputs": [
        {
          "internalType": "string",
          "name": "",
          "type": "string"
        }
      ],
      "stateMutability": "view",
      "type": "function"
    },
    {
      "inputs": [],
      "name": "getTotalArticles",
      "outputs": [
        {
          "internalType": "uint256",
          "name": "",
          "type": "uint256"
        }
      ],
      "stateMutability": "view",
      "type": "function"
    },
    {
      "inputs": [
        {
          "internalType": "string",
          "name": "",
          "type": "string"
        }
      ],
      "name": "mediaContentTypes",
      "outputs": [
        {
          "internalType": "string",
          "name": "",
          "type": "string"
        }
      ],
      "stateMutability": "view",
      "type": "function"
    },
    {
      "inputs": [],
      "name": "minimumStake",
      "outputs": [
        {
          "internalType": "uint256",
          "name": "",
          "type": "uint256"
        }
      ],
      "stateMutability": "view",
      "type": "function"
    },
    {
      "inputs": [],
      "name": "nextArticleId",
      "outputs": [
        {
          "internalType": "uint256",
          "name": "",
          "type": "uint256"
        }
      ],
      "stateMutability": "view",
      "type": "function"
    },
    {
      "inputs": [],
      "name": "stakingManager",
      "outputs": [
        {
          "internalType": "address",
          "name": "",
          "type": "address"
        }
      ],
      "stateMutability": "view",
      "type": "function"
    },
    {
      "inputs": [
        {
          "internalType": "uint256",
          "name": "articleId",
          "type": "uint256"
        },
        {
          "internalType": "string",
          "name": "newTitle",
          "type": "string"
        },
        {
          "internalType": "string",
          "name": "newWalrusHash",
          "type": "string"
        },
        {
          "internalType": "string",
          "name": "newMetadata",
          "type": "string"
        }
      ],
      "name": "updateArticle",
      "outputs": [],
      "stateMutability": "nonpayable",
      "type": "function"
    },
    {
      "inputs": [
        {
          "internalType": "uint256",
          "name": "newMinimumStake",
          "type": "uint256"
        }
      ],
      "name": "updateMinimumStake",
      "outputs": [],
      "stateMutability": "nonpayable",
      "type": "function"
    },
    {
      "inputs": [
        {
          "internalType": "address",
          "name": "newStakingManager",
          "type": "address"
        }
      ],
      "name": "updateStakingManager",
      "outputs": [],
      "stateMutability": "nonpayable",
      "type": "function"
    },
    {
      "stateMutability": "payable",
      "type": "receive"
    }
  ],
  "bytecode": "0x60806040526001600555662386f26fc10000600655348015601f57600080fd5b506040516121b73803806121b7833981016040819052603c916060565b600780546001600160a01b0319166001600160a01b0392909216919091179055608e565b600060208284031215607157600080fd5b81516001600160a01b0381168114608757600080fd5b9392505050565b61211a8061009d6000396000f3fe60806040526004361061015a5760003560e01c806385c3ab54116100c8578063b1b820fe11610084578063db2e21bc11610061578063db2e21bc14610449578063ec5ffac21461045e578063edcfafe614610474578063f0c0ab1f146104a957005b8063b1b820fe146103cc578063bd85d867146103fc578063c70e7aff1461042957005b806385c3ab54146103095780638d9424351461031f57806393b5df9f1461033f57806396a1b6b51461036c578063a3a572121461038c578063a9645a2c146103ac57005b80633936a6c8116101175780633936a6c81461024957806339c2f0b6146102695780634c41e8801461028957806354b851df146102a95780635e0d1863146102c957806381924e63146102e957005b806304443e5d1461015c5780630ebf1d3d1461017c5780631521ba3f146101a457806322828cc2146101d15780632dd9437f1461020957806338e4826e1461021c575b005b34801561016857600080fd5b5061015a6101773660046118f0565b6104c9565b34801561018857600080fd5b506101916106c3565b6040519081526020015b60405180910390f35b3480156101b057600080fd5b506101c46101bf3660046119aa565b6106d9565b60405161019b91906119c5565b3480156101dd57600080fd5b506007546101f1906001600160a01b031681565b6040516001600160a01b03909116815260200161019b565b610191610217366004611a08565b610745565b34801561022857600080fd5b5061023c610237366004611a9c565b6108f1565b60405161019b9190611b29565b34801561025557600080fd5b5061015a610264366004611b3c565b610997565b34801561027557600080fd5b50610191610284366004611b3c565b610a47565b34801561029557600080fd5b5061015a6102a4366004611b5e565b610a78565b3480156102b557600080fd5b506101c46102c4366004611b86565b610aa7565b3480156102d557600080fd5b5061015a6102e4366004611ba1565b610bdd565b3480156102f557600080fd5b5061023c610304366004611b3c565b610d0e565b34801561031557600080fd5b5061019160055481565b34801561032b57600080fd5b506101c461033a366004611b5e565b610dbd565b34801561034b57600080fd5b5061035f61035a366004611b5e565b610e40565b60405161019b9190611c29565b34801561037857600080fd5b5061015a6103873660046119aa565b610f53565b34801561039857600080fd5b5061023c6103a7366004611b3c565b61101e565b3480156103b857600080fd5b5061023c6103c7366004611a9c565b6110c3565b3480156103d857600080fd5b506103ec6103e7366004611b5e565b6110e7565b604051901515815260200161019b565b34801561040857600080fd5b5061041c610417366004611b5e565b6110fb565b60405161019b9190611c74565b34801561043557600080fd5b5061015a610444366004611d4f565b611452565b34801561045557600080fd5b5061015a61156a565b34801561046a57600080fd5b5061019160065481565b34801561048057600080fd5b5061049461048f366004611b5e565b6115d0565b60405161019b99989796959493929190611d82565b3480156104b557600080fd5b506101916104c4366004611e03565b6117c2565b836000811180156104db575060055481105b6105005760405162461bcd60e51b81526004016104f790611e2d565b60405180910390fd5b60008581526020819052604090206001015485906001600160a01b031633146105645760405162461bcd60e51b81526020600482015260166024820152752737ba103a34329030b93a34b1b6329030baba3437b960511b60448201526064016104f7565b600086815260208190526040812090600582015460ff16600381111561058c5761058c611c3c565b14806105b057506001600582015460ff1660038111156105ae576105ae611c3c565b145b6106105760405162461bcd60e51b815260206004820152602b60248201527f43616e6e6f7420757064617465207075626c6973686564206f7220666c61676760448201526a65642061727469636c657360a81b60648201526084016104f7565b60078101805490600061062283611e73565b9091555050600281016106358782611f0f565b50600381016106448682611f0f565b50600981016106538582611f0f565b50600087815260036020908152604080832060078501548452909152902061067b8682611f0f565b50867fe2adfb7d5473ff9b0bb36ff04fe4f4c33694bf83ec86e9cc9b86780e59f47c9b8260070154876040516106b2929190611fce565b60405180910390a250505050505050565b600060016005546106d49190611fe7565b905090565b6001600160a01b03811660009081526001602090815260409182902080548351818402810184019094528084526060939283018282801561073957602002820191906000526020600020905b815481526020019060010190808311610725575b50505050509050919050565b60006006543410156107995760405162461bcd60e51b815260206004820152601c60248201527f5374616b652062656c6f77206d696e696d756d2072657175697265640000000060448201526064016104f7565b60058054600091826107aa83611e73565b9091555060008181526020819052604090208181556001810180546001600160a01b03191633179055909150600281016107e48782611f0f565b50600381016107f38682611f0f565b5042600482015560058101805460ff1916905534600682015560016007820155600981016108218582611f0f565b5060008281526003602090815260408083206001845290915290206108468682611f0f565b5033600090815260016020818152604083208054928301815583528220018390556108746201518042611ffa565b610881906201518061201c565b60008181526002602090815260408083208054600181018255908452919092200185905551909150339084907f269814fa683c33023779638ccb5bcc299171e22d9d539a815e1d4d74d222e185906108dc908a903490612033565b60405180910390a350909150505b9392505050565b60606004826040516109039190612055565b9081526020016040518091039020805461091c90611e8c565b80601f016020809104026020016040519081016040528092919081815260200182805461094890611e8c565b80156107395780601f1061096a57610100808354040283529160200191610739565b820191906000526020600020905b8154815290600101906020018083116109785750939695505050505050565b6007546001600160a01b031633146109c15760405162461bcd60e51b81526004016104f790612071565b816000811180156109d3575060055481105b6109ef5760405162461bcd60e51b81526004016104f790611e2d565b6000838152602081815260409182902060060180549085905582518181529182018590529185917f48181f312f246a384394db763c5a6d552e3aba3f570589a32a60852704c4a7be910160405180910390a250505050565b60026020528160005260406000208181548110610a6357600080fd5b90600052602060002001600091509150505481565b6007546001600160a01b03163314610aa25760405162461bcd60e51b81526004016104f790612071565b600655565b6060600060015b600554811015610b0b57836003811115610aca57610aca611c3c565b60008281526020819052604090206005015460ff166003811115610af057610af0611c3c565b03610b035781610aff81611e73565b9250505b600101610aae565b5060008167ffffffffffffffff811115610b2757610b2761184b565b604051908082528060200260200182016040528015610b50578160200160208202803683370190505b509050600060015b600554811015610bd357856003811115610b7457610b74611c3c565b60008281526020819052604090206005015460ff166003811115610b9a57610b9a611c3c565b03610bcb5780838381518110610bb257610bb26120b3565b602090810291909101015281610bc781611e73565b9250505b600101610b58565b5090949350505050565b81600081118015610bef575060055481105b610c0b5760405162461bcd60e51b81526004016104f790611e2d565b600083815260208190526040902060018101546001600160a01b0316331480610c3e57506007546001600160a01b031633145b610ca35760405162461bcd60e51b815260206004820152603060248201527f4f6e6c7920617574686f72206f72207374616b696e67206d616e61676572206360448201526f616e206368616e67652073746174757360801b60648201526084016104f7565b60058101805460ff811691859160ff19166001836003811115610cc857610cc8611c3c565b0217905550847f4c977eab54ce1c605354b499716888e2b385fad2d99cff2839542c2924d9d2658286604051610cff9291906120c9565b60405180910390a25050505050565b60008281526003602090815260408083208484529091529020805460609190610d3690611e8c565b80601f0160208091040260200160405190810160405280929190818152602001828054610d6290611e8c565b8015610daf5780601f10610d8457610100808354040283529160200191610daf565b820191906000526020600020905b815481529060010190602001808311610d9257829003601f168201915b505050505090505b92915050565b60606000610dce6201518084611ffa565b610ddb906201518061201c565b6000818152600260209081526040918290208054835181840281018401909452808452939450919290830182828015610e3357602002820191906000526020600020905b815481526020019060010190808311610e1f575b5050505050915050919050565b606081600081118015610e54575060055481105b610e705760405162461bcd60e51b81526004016104f790611e2d565b60008381526020818152604080832060080180548251818502810185019093528083529193909284015b82821015610f46578382906000526020600020018054610eb990611e8c565b80601f0160208091040260200160405190810160405280929190818152602001828054610ee590611e8c565b8015610f325780601f10610f0757610100808354040283529160200191610f32565b820191906000526020600020905b815481529060010190602001808311610f1557829003601f168201915b505050505081526020019060010190610e9a565b5050505091505b50919050565b6007546001600160a01b03163314610fbd5760405162461bcd60e51b815260206004820152602760248201527f4f6e6c792063757272656e74207374616b696e67206d616e616765722063616e6044820152662075706461746560c81b60648201526084016104f7565b600780546001600160a01b038381166001600160a01b031983168117909355604080519190921680825260208201939093527ffc41361c635b6262e073924c72e696204153eb6184c227b8f8241df5bcc96d37910160405180910390a15050565b60036020908152600092835260408084209091529082529020805461104290611e8c565b80601f016020809104026020016040519081016040528092919081815260200182805461106e90611e8c565b80156110bb5780601f10611090576101008083540402835291602001916110bb565b820191906000526020600020905b81548152906001019060200180831161109e57829003601f168201915b505050505081565b80516020818301810180516004825292820191909301209152805461104290611e8c565b60008082118015610db75750506005541190565b6111036117de565b81600081118015611115575060055481105b6111315760405162461bcd60e51b81526004016104f790611e2d565b600083815260208181526040918290208251610140810184528154815260018201546001600160a01b031692810192909252600281018054929391929184019161117a90611e8c565b80601f01602080910402602001604051908101604052809291908181526020018280546111a690611e8c565b80156111f35780601f106111c8576101008083540402835291602001916111f3565b820191906000526020600020905b8154815290600101906020018083116111d657829003601f168201915b5050505050815260200160038201805461120c90611e8c565b80601f016020809104026020016040519081016040528092919081815260200182805461123890611e8c565b80156112855780601f1061125a57610100808354040283529160200191611285565b820191906000526020600020905b81548152906001019060200180831161126857829003601f168201915b505050918352505060048201546020820152600582015460409091019060ff1660038111156112b6576112b6611c3c565b60038111156112c7576112c7611c3c565b8152602001600682015481526020016007820154815260200160088201805480602002602001604051908101604052809291908181526020016000905b828210156113b057838290600052602060002001805461132390611e8c565b80601f016020809104026020016040519081016040528092919081815260200182805461134f90611e8c565b801561139c5780601f106113715761010080835404028352916020019161139c565b820191906000526020600020905b81548152906001019060200180831161137f57829003601f168201915b505050505081526020019060010190611304565b5050505081526020016009820180546113c890611e8c565b80601f01602080910402602001604051908101604052809291908181526020018280546113f490611e8c565b80156114415780601f1061141657610100808354040283529160200191611441565b820191906000526020600020905b81548152906001019060200180831161142457829003601f168201915b505050505081525050915050919050565b60008381526020819052604090206001015483906001600160a01b031633146114b65760405162461bcd60e51b81526020600482015260166024820152752737ba103a34329030b93a34b1b6329030baba3437b960511b60448201526064016104f7565b836000811180156114c8575060055481105b6114e45760405162461bcd60e51b81526004016104f790611e2d565b6000858152602081815260408220600801805460018101825590835291200161150d8582611f0f565b508260048560405161151f9190612055565b908152602001604051809103902090816115399190611f0f565b50847f41cb2bcb31dda1061b50a710e06b01ad9f9db0205241852241a0bde064cc2c4f85604051610cff9190611b29565b6007546001600160a01b031633146115945760405162461bcd60e51b81526004016104f790612071565b6007546040516001600160a01b03909116904780156108fc02916000818181858888f193505050501580156115cd573d6000803e3d6000fd5b50565b60006020819052908152604090208054600182015460028301805492936001600160a01b039092169261160290611e8c565b80601f016020809104026020016040519081016040528092919081815260200182805461162e90611e8c565b801561167b5780601f106116505761010080835404028352916020019161167b565b820191906000526020600020905b81548152906001019060200180831161165e57829003601f168201915b50505050509080600301805461169090611e8c565b80601f01602080910402602001604051908101604052809291908181526020018280546116bc90611e8c565b80156117095780601f106116de57610100808354040283529160200191611709565b820191906000526020600020905b8154815290600101906020018083116116ec57829003601f168201915b50505060048401546005850154600686015460078701546009880180549798949760ff9094169650919450929161173f90611e8c565b80601f016020809104026020016040519081016040528092919081815260200182805461176b90611e8c565b80156117b85780601f1061178d576101008083540402835291602001916117b8565b820191906000526020600020905b81548152906001019060200180831161179b57829003601f168201915b5050505050905089565b60016020528160005260406000208181548110610a6357600080fd5b6040518061014001604052806000815260200160006001600160a01b031681526020016060815260200160608152602001600081526020016000600381111561182957611829611c3c565b8152602001600081526020016000815260200160608152602001606081525090565b634e487b7160e01b600052604160045260246000fd5b600082601f83011261187257600080fd5b813567ffffffffffffffff81111561188c5761188c61184b565b604051601f8201601f19908116603f0116810167ffffffffffffffff811182821017156118bb576118bb61184b565b6040528181528382016020018510156118d357600080fd5b816020850160208301376000918101602001919091529392505050565b6000806000806080858703121561190657600080fd5b84359350602085013567ffffffffffffffff81111561192457600080fd5b61193087828801611861565b935050604085013567ffffffffffffffff81111561194d57600080fd5b61195987828801611861565b925050606085013567ffffffffffffffff81111561197657600080fd5b61198287828801611861565b91505092959194509250565b80356001600160a01b03811681146119a557600080fd5b919050565b6000602082840312156119bc57600080fd5b6108ea8261198e565b602080825282518282018190526000918401906040840190835b818110156119fd5783518352602093840193909201916001016119df565b509095945050505050565b600080600060608486031215611a1d57600080fd5b833567ffffffffffffffff811115611a3457600080fd5b611a4086828701611861565b935050602084013567ffffffffffffffff811115611a5d57600080fd5b611a6986828701611861565b925050604084013567ffffffffffffffff811115611a8657600080fd5b611a9286828701611861565b9150509250925092565b600060208284031215611aae57600080fd5b813567ffffffffffffffff811115611ac557600080fd5b611ad184828501611861565b949350505050565b60005b83811015611af4578181015183820152602001611adc565b50506000910152565b60008151808452611b15816020860160208601611ad9565b601f01601f19169290920160200192915050565b6020815260006108ea6020830184611afd565b60008060408385031215611b4f57600080fd5b50508035926020909101359150565b600060208284031215611b7057600080fd5b5035919050565b8035600481106119a557600080fd5b600060208284031215611b9857600080fd5b6108ea82611b77565b60008060408385031215611bb457600080fd5b82359150611bc460208401611b77565b90509250929050565b600082825180855260208501945060208160051b8301016020850160005b83811015611c1d57601f19858403018852611c07838351611afd565b6020988901989093509190910190600101611beb565b50909695505050505050565b6020815260006108ea6020830184611bcd565b634e487b7160e01b600052602160045260246000fd5b60048110611c7057634e487b7160e01b600052602160045260246000fd5b9052565b602081528151602082015260006020830151611c9b60408401826001600160a01b03169052565b5060408301516101406060840152611cb7610160840182611afd565b90506060840151601f19848303016080850152611cd48282611afd565b915050608084015160a084015260a0840151611cf360c0850182611c52565b5060c084015160e084015260e0840151610100840152610100840151601f1984830301610120850152611d268282611bcd565b915050610120840151601f1984830301610140850152611d468282611afd565b95945050505050565b600080600060608486031215611d6457600080fd5b83359250602084013567ffffffffffffffff811115611a5d57600080fd5b8981526001600160a01b038916602082015261012060408201819052600090611dad9083018a611afd565b8281036060840152611dbf818a611afd565b9050876080840152611dd460a0840188611c52565b8560c08401528460e0840152828103610100840152611df38185611afd565b9c9b505050505050505050505050565b60008060408385031215611e1657600080fd5b611e1f8361198e565b946020939093013593505050565b602080825260169082015275105c9d1a58db1948191bd95cc81b9bdd08195e1a5cdd60521b604082015260600190565b634e487b7160e01b600052601160045260246000fd5b600060018201611e8557611e85611e5d565b5060010190565b600181811c90821680611ea057607f821691505b602082108103610f4d57634e487b7160e01b600052602260045260246000fd5b601f821115611f0a57806000526020600020601f840160051c81016020851015611ee75750805b601f840160051c820191505b81811015611f075760008155600101611ef3565b50505b505050565b815167ffffffffffffffff811115611f2957611f2961184b565b611f3d81611f378454611e8c565b84611ec0565b6020601f821160018114611f715760008315611f595750848201515b600019600385901b1c1916600184901b178455611f07565b600084815260208120601f198516915b82811015611fa15787850151825560209485019460019092019101611f81565b5084821015611fbf5786840151600019600387901b60f8161c191681555b50505050600190811b01905550565b828152604060208201526000611ad16040830184611afd565b81810381811115610db757610db7611e5d565b60008261201757634e487b7160e01b600052601260045260246000fd5b500490565b8082028115828204841417610db757610db7611e5d565b6040815260006120466040830185611afd565b90508260208301529392505050565b60008251612067818460208701611ad9565b9190910192915050565b60208082526022908201527f4f6e6c79207374616b696e67206d616e616765722063616e2063616c6c207468604082015261697360f01b606082015260800190565b634e487b7160e01b600052603260045260246000fd5b604081016120d78285611c52565b6108ea6020830184611c5256fea2646970667358221220b44c37a99749b519a473a4fc4ec0e5506b532578085cda107dae4c3a4688331164736f6c634300081c0033",
  "linkReferences": {},
  "deployedLinkReferences": {}
}