{
  "_format": "hh-sol-artifact-1",
  "contractName": "ArticleManager",
  "sourceName": "content/ArticleManager.sol",
  "abi": [
    {
      "inputs": [
        {
          "internalType": "address",
          "name": "_stakingManager",
          "type": "address"
        }
      ],
      "stateMutability": "nonpayable",
      "type": "constructor"
    },
    {
      "anonymous": false,
      "inputs": [
        {
          "indexed": true,
          "internalType": "uint256",
          "name": "articleId",
          "type": "uint256"
        },
        {
          "indexed": true,
          "internalType": "address",
          "name": "author",
          "type": "address"
        },
        {
          "indexed": false,
          "internalType": "string",
          "name": "walrusHash",
          "type": "string"
        },
        {
          "indexed": false,
          "internalType": "uint256",
          "name": "stake",
          "type": "uint256"
        }
      ],
      "name": "ArticleCreated",
      "type": "event"
    },
    {
      "anonymous": false,
      "inputs": [
        {
          "indexed": true,
          "internalType": "uint256",
          "name": "articleId",
          "type": "uint256"
        },
        {
          "indexed": false,
          "internalType": "enum ArticleManager.ArticleStatus",
          "name": "oldStatus",
          "type": "uint8"
        },
        {
          "indexed": false,
          "internalType": "enum ArticleManager.ArticleStatus",
          "name": "newStatus",
          "type": "uint8"
        }
      ],
      "name": "ArticleStatusChanged",
      "type": "event"
    },
    {
      "anonymous": false,
      "inputs": [
        {
          "indexed": true,
          "internalType": "uint256",
          "name": "articleId",
          "type": "uint256"
        },
        {
          "indexed": false,
          "internalType": "uint256",
          "name": "newVersion",
          "type": "uint256"
        },
        {
          "indexed": false,
          "internalType": "string",
          "name": "newWalrusHash",
          "type": "string"
        }
      ],
      "name": "ArticleUpdated",
      "type": "event"
    },
    {
      "anonymous": false,
      "inputs": [
        {
          "indexed": true,
          "internalType": "uint256",
          "name": "articleId",
          "type": "uint256"
        },
        {
          "indexed": false,
          "internalType": "string",
          "name": "mediaHash",
          "type": "string"
        }
      ],
      "name": "MediaAttached",
      "type": "event"
    },
    {
      "anonymous": false,
      "inputs": [
        {
          "indexed": true,
          "internalType": "uint256",
          "name": "articleId",
          "type": "uint256"
        },
        {
          "indexed": false,
          "internalType": "uint256",
          "name": "oldStake",
          "type": "uint256"
        },
        {
          "indexed": false,
          "internalType": "uint256",
          "name": "newStake",
          "type": "uint256"
        }
      ],
      "name": "StakeAdjusted",
      "type": "event"
    },
    {
      "anonymous": false,
      "inputs": [
        {
          "indexed": false,
          "internalType": "address",
          "name": "oldManager",
          "type": "address"
        },
        {
          "indexed": false,
          "internalType": "address",
          "name": "newManager",
          "type": "address"
        }
      ],
      "name": "StakingManagerUpdated",
      "type": "event"
    },
    {
      "stateMutability": "payable",
      "type": "fallback"
    },
    {
      "inputs": [
        {
          "internalType": "uint256",
          "name": "articleId",
          "type": "uint256"
        },
        {
          "internalType": "uint256",
          "name": "newStake",
          "type": "uint256"
        }
      ],
      "name": "adjustStake",
      "outputs": [],
      "stateMutability": "nonpayable",
      "type": "function"
    },
    {
      "inputs": [
        {
          "internalType": "uint256",
          "name": "articleId",
          "type": "uint256"
        }
      ],
      "name": "articleExists",
      "outputs": [
        {
          "internalType": "bool",
          "name": "",
          "type": "bool"
        }
      ],
      "stateMutability": "view",
      "type": "function"
    },
    {
      "inputs": [
        {
          "internalType": "uint256",
          "name": "",
          "type": "uint256"
        },
        {
          "internalType": "uint256",
          "name": "",
          "type": "uint256"
        }
      ],
      "name": "articleVersions",
      "outputs": [
        {
          "internalType": "string",
          "name": "",
          "type": "string"
        }
      ],
      "stateMutability": "view",
      "type": "function"
    },
    {
      "inputs": [
        {
          "internalType": "uint256",
          "name": "",
          "type": "uint256"
        }
      ],
      "name": "articles",
      "outputs": [
        {
          "internalType": "uint256",
          "name": "id",
          "type": "uint256"
        },
        {
          "internalType": "address",
          "name": "author",
          "type": "address"
        },
        {
          "internalType": "string",
          "name": "walrusHash",
          "type": "string"
        },
        {
          "internalType": "uint256",
          "name": "timestamp",
          "type": "uint256"
        },
        {
          "internalType": "enum ArticleManager.ArticleStatus",
          "name": "status",
          "type": "uint8"
        },
        {
          "internalType": "uint256",
          "name": "stake",
          "type": "uint256"
        },
        {
          "internalType": "uint256",
          "name": "version",
          "type": "uint256"
        },
        {
          "internalType": "string",
          "name": "metadata",
          "type": "string"
        }
      ],
      "stateMutability": "view",
      "type": "function"
    },
    {
      "inputs": [
        {
          "internalType": "address",
          "name": "",
          "type": "address"
        },
        {
          "internalType": "uint256",
          "name": "",
          "type": "uint256"
        }
      ],
      "name": "articlesByAuthor",
      "outputs": [
        {
          "internalType": "uint256",
          "name": "",
          "type": "uint256"
        }
      ],
      "stateMutability": "view",
      "type": "function"
    },
    {
      "inputs": [
        {
          "internalType": "uint256",
          "name": "",
          "type": "uint256"
        },
        {
          "internalType": "uint256",
          "name": "",
          "type": "uint256"
        }
      ],
      "name": "articlesByDate",
      "outputs": [
        {
          "internalType": "uint256",
          "name": "",
          "type": "uint256"
        }
      ],
      "stateMutability": "view",
      "type": "function"
    },
    {
      "inputs": [
        {
          "internalType": "uint256",
          "name": "articleId",
          "type": "uint256"
        },
        {
          "internalType": "string",
          "name": "mediaHash",
          "type": "string"
        }
      ],
      "name": "attachMedia",
      "outputs": [],
      "stateMutability": "nonpayable",
      "type": "function"
    },
    {
      "inputs": [
        {
          "internalType": "uint256",
          "name": "articleId",
          "type": "uint256"
        },
        {
          "internalType": "enum ArticleManager.ArticleStatus",
          "name": "newStatus",
          "type": "uint8"
        }
      ],
      "name": "changeArticleStatus",
      "outputs": [],
      "stateMutability": "nonpayable",
      "type": "function"
    },
    {
      "inputs": [
        {
          "internalType": "string",
          "name": "walrusHash",
          "type": "string"
        },
        {
          "internalType": "string",
          "name": "metadata",
          "type": "string"
        }
      ],
      "name": "createArticle",
      "outputs": [
        {
          "internalType": "uint256",
          "name": "",
          "type": "uint256"
        }
      ],
      "stateMutability": "payable",
      "type": "function"
    },
    {
      "inputs": [],
      "name": "emergencyWithdraw",
      "outputs": [],
      "stateMutability": "nonpayable",
      "type": "function"
    },
    {
      "inputs": [
        {
          "internalType": "uint256",
          "name": "articleId",
          "type": "uint256"
        }
      ],
      "name": "getArticle",
      "outputs": [
        {
          "components": [
            {
              "internalType": "uint256",
              "name": "id",
              "type": "uint256"
            },
            {
              "internalType": "address",
              "name": "author",
              "type": "address"
            },
            {
              "internalType": "string",
              "name": "walrusHash",
              "type": "string"
            },
            {
              "internalType": "uint256",
              "name": "timestamp",
              "type": "uint256"
            },
            {
              "internalType": "enum ArticleManager.ArticleStatus",
              "name": "status",
              "type": "uint8"
            },
            {
              "internalType": "uint256",
              "name": "stake",
              "type": "uint256"
            },
            {
              "internalType": "uint256",
              "name": "version",
              "type": "uint256"
            },
            {
              "internalType": "string[]",
              "name": "mediaHashes",
              "type": "string[]"
            },
            {
              "internalType": "string",
              "name": "metadata",
              "type": "string"
            }
          ],
          "internalType": "struct ArticleManager.Article",
          "name": "",
          "type": "tuple"
        }
      ],
      "stateMutability": "view",
      "type": "function"
    },
    {
      "inputs": [
        {
          "internalType": "uint256",
          "name": "articleId",
          "type": "uint256"
        }
      ],
      "name": "getArticleMedia",
      "outputs": [
        {
          "internalType": "string[]",
          "name": "",
          "type": "string[]"
        }
      ],
      "stateMutability": "view",
      "type": "function"
    },
    {
      "inputs": [
        {
          "internalType": "uint256",
          "name": "articleId",
          "type": "uint256"
        },
        {
          "internalType": "uint256",
          "name": "version",
          "type": "uint256"
        }
      ],
      "name": "getArticleVersion",
      "outputs": [
        {
          "internalType": "string",
          "name": "",
          "type": "string"
        }
      ],
      "stateMutability": "view",
      "type": "function"
    },
    {
      "inputs": [
        {
          "internalType": "address",
          "name": "author",
          "type": "address"
        }
      ],
      "name": "getArticlesByAuthor",
      "outputs": [
        {
          "internalType": "uint256[]",
          "name": "",
          "type": "uint256[]"
        }
      ],
      "stateMutability": "view",
      "type": "function"
    },
    {
      "inputs": [
        {
          "internalType": "uint256",
          "name": "date",
          "type": "uint256"
        }
      ],
      "name": "getArticlesByDate",
      "outputs": [
        {
          "internalType": "uint256[]",
          "name": "",
          "type": "uint256[]"
        }
      ],
      "stateMutability": "view",
      "type": "function"
    },
    {
      "inputs": [
        {
          "internalType": "enum ArticleManager.ArticleStatus",
          "name": "status",
          "type": "uint8"
        }
      ],
      "name": "getArticlesByStatus",
      "outputs": [
        {
          "internalType": "uint256[]",
          "name": "",
          "type": "uint256[]"
        }
      ],
      "stateMutability": "view",
      "type": "function"
    },
    {
      "inputs": [],
      "name": "getTotalArticles",
      "outputs": [
        {
          "internalType": "uint256",
          "name": "",
          "type": "uint256"
        }
      ],
      "stateMutability": "view",
      "type": "function"
    },
    {
      "inputs": [],
      "name": "minimumStake",
      "outputs": [
        {
          "internalType": "uint256",
          "name": "",
          "type": "uint256"
        }
      ],
      "stateMutability": "view",
      "type": "function"
    },
    {
      "inputs": [],
      "name": "nextArticleId",
      "outputs": [
        {
          "internalType": "uint256",
          "name": "",
          "type": "uint256"
        }
      ],
      "stateMutability": "view",
      "type": "function"
    },
    {
      "inputs": [],
      "name": "stakingManager",
      "outputs": [
        {
          "internalType": "address",
          "name": "",
          "type": "address"
        }
      ],
      "stateMutability": "view",
      "type": "function"
    },
    {
      "inputs": [
        {
          "internalType": "uint256",
          "name": "articleId",
          "type": "uint256"
        },
        {
          "internalType": "string",
          "name": "newWalrusHash",
          "type": "string"
        },
        {
          "internalType": "string",
          "name": "newMetadata",
          "type": "string"
        }
      ],
      "name": "updateArticle",
      "outputs": [],
      "stateMutability": "nonpayable",
      "type": "function"
    },
    {
      "inputs": [
        {
          "internalType": "uint256",
          "name": "newMinimumStake",
          "type": "uint256"
        }
      ],
      "name": "updateMinimumStake",
      "outputs": [],
      "stateMutability": "nonpayable",
      "type": "function"
    },
    {
      "inputs": [
        {
          "internalType": "address",
          "name": "newStakingManager",
          "type": "address"
        }
      ],
      "name": "updateStakingManager",
      "outputs": [],
      "stateMutability": "nonpayable",
      "type": "function"
    },
    {
      "stateMutability": "payable",
      "type": "receive"
    }
  ],
  "bytecode": "0x60806040526001600455662386f26fc1000060055534801561002057600080fd5b50604051611e51380380611e5183398101604081905261003f91610064565b600680546001600160a01b0319166001600160a01b0392909216919091179055610094565b60006020828403121561007657600080fd5b81516001600160a01b038116811461008d57600080fd5b9392505050565b611dae806100a36000396000f3fe6080604052600436106101385760003560e01c80638cfa2272116100b0578063bd85d8671161006c578063bd85d867146103a1578063db2e21bc146103ce578063ec5ffac2146103e3578063edcfafe6146103f9578063f0c0ab1f1461042d578063fb2ee2d21461044d57005b80638cfa2272146102d15780638d942435146102e457806393b5df9f1461030457806396a1b6b514610331578063a3a5721214610351578063b1b820fe1461037157005b80634c41e880116100ff5780634c41e8801461020e57806354b851df1461022e5780635e0d18631461024e57806381924e631461026e57806385c3ab541461029b57806388670412146102b157005b80630ebf1d3d146101415780631521ba3f1461016957806322828cc2146101965780633936a6c8146101ce57806339c2f0b6146101ee57005b3661013f57005b005b34801561014d57600080fd5b5061015661046d565b6040519081526020015b60405180910390f35b34801561017557600080fd5b506101896101843660046115e1565b610483565b6040516101609190611603565b3480156101a257600080fd5b506006546101b6906001600160a01b031681565b6040516001600160a01b039091168152602001610160565b3480156101da57600080fd5b5061013f6101e9366004611647565b6104ef565b3480156101fa57600080fd5b50610156610209366004611647565b6105a9565b34801561021a57600080fd5b5061013f610229366004611669565b6105da565b34801561023a57600080fd5b50610189610249366004611691565b610609565b34801561025a57600080fd5b5061013f6102693660046116ac565b610753565b34801561027a57600080fd5b5061028e610289366004611647565b610884565b604051610160919061171e565b3480156102a757600080fd5b5061015660045481565b3480156102bd57600080fd5b5061013f6102cc3660046117d4565b610933565b6101566102df366004611841565b610b14565b3480156102f057600080fd5b506101896102ff366004611669565b610cae565b34801561031057600080fd5b5061032461031f366004611669565b610d31565b60405161016091906118fa565b34801561033d57600080fd5b5061013f61034c3660046115e1565b610e44565b34801561035d57600080fd5b5061028e61036c366004611647565b610f0f565b34801561037d57600080fd5b5061039161038c366004611669565b610fb4565b6040519015158152602001610160565b3480156103ad57600080fd5b506103c16103bc366004611669565b610fc8565b6040516101609190611945565b3480156103da57600080fd5b5061013f61128d565b3480156103ef57600080fd5b5061015660055481565b34801561040557600080fd5b50610419610414366004611669565b6112f3565b604051610160989796959493929190611a00565b34801561043957600080fd5b50610156610448366004611a6d565b611457565b34801561045957600080fd5b5061013f610468366004611a97565b611473565b6000600160045461047e9190611aea565b905090565b6001600160a01b0381166000908152600160209081526040918290208054835181840281018401909452808452606093928301828280156104e357602002820191906000526020600020905b8154815260200190600101908083116104cf575b50505050509050919050565b6006546001600160a01b031633146105225760405162461bcd60e51b815260040161051990611afd565b60405180910390fd5b81600081118015610534575060045481105b6105505760405162461bcd60e51b815260040161051990611b3f565b6000838152602081815260409182902060050180549085905582518181529182018590529185917f48181f312f246a384394db763c5a6d552e3aba3f570589a32a60852704c4a7be91015b60405180910390a250505050565b600260205281600052604060002081815481106105c557600080fd5b90600052602060002001600091509150505481565b6006546001600160a01b031633146106045760405162461bcd60e51b815260040161051990611afd565b600555565b6060600060015b6004548110156106775783600381111561062c5761062c61190d565b60008281526020819052604090206004015460ff1660038111156106525761065261190d565b03610665578161066181611b6f565b9250505b8061066f81611b6f565b915050610610565b5060008167ffffffffffffffff81111561069357610693611731565b6040519080825280602002602001820160405280156106bc578160200160208202803683370190505b509050600060015b600454811015610749578560038111156106e0576106e061190d565b60008281526020819052604090206004015460ff1660038111156107065761070661190d565b03610737578083838151811061071e5761071e611b88565b60209081029190910101528161073381611b6f565b9250505b8061074181611b6f565b9150506106c4565b5090949350505050565b81600081118015610765575060045481105b6107815760405162461bcd60e51b815260040161051990611b3f565b600083815260208190526040902060018101546001600160a01b03163314806107b457506006546001600160a01b031633145b6108195760405162461bcd60e51b815260206004820152603060248201527f4f6e6c7920617574686f72206f72207374616b696e67206d616e61676572206360448201526f616e206368616e67652073746174757360801b6064820152608401610519565b60048101805460ff811691859160ff1916600183600381111561083e5761083e61190d565b0217905550847f4c977eab54ce1c605354b499716888e2b385fad2d99cff2839542c2924d9d2658286604051610875929190611b9e565b60405180910390a25050505050565b600082815260036020908152604080832084845290915290208054606091906108ac90611bb9565b80601f01602080910402602001604051908101604052809291908181526020018280546108d890611bb9565b80156109255780601f106108fa57610100808354040283529160200191610925565b820191906000526020600020905b81548152906001019060200180831161090857829003601f168201915b505050505090505b92915050565b82600081118015610945575060045481105b6109615760405162461bcd60e51b815260040161051990611b3f565b60008481526020819052604090206001015484906001600160a01b031633146109c55760405162461bcd60e51b81526020600482015260166024820152752737ba103a34329030b93a34b1b6329030baba3437b960511b6044820152606401610519565b600085815260208190526040812090600482015460ff1660038111156109ed576109ed61190d565b1480610a1157506001600482015460ff166003811115610a0f57610a0f61190d565b145b610a715760405162461bcd60e51b815260206004820152602b60248201527f43616e6e6f7420757064617465207075626c6973686564206f7220666c61676760448201526a65642061727469636c657360a81b6064820152608401610519565b600681018054906000610a8383611b6f565b909155505060028101610a968682611c3c565b5060088101610aa58582611c3c565b506000868152600360209081526040808320600685015484529091529020610acd8682611c3c565b50857fe2adfb7d5473ff9b0bb36ff04fe4f4c33694bf83ec86e9cc9b86780e59f47c9b826006015487604051610b04929190611cfc565b60405180910390a2505050505050565b6000600554341015610b685760405162461bcd60e51b815260206004820152601c60248201527f5374616b652062656c6f77206d696e696d756d207265717569726564000000006044820152606401610519565b6004805460009182610b7983611b6f565b9091555060008181526020819052604090208181556001810180546001600160a01b0319163317905590915060028101610bb38682611c3c565b5042600382015560048101805460ff191690553460058201556001600682015560088101610be18582611c3c565b506000828152600360209081526040808320600184529091529020610c068682611c3c565b503360009081526001602081815260408320805492830181558352822001839055610c346201518042611d1d565b610c419062015180611d3f565b60008181526002602090815260408083208054600181018255908452919092200185905551909150339084907f269814fa683c33023779638ccb5bcc299171e22d9d539a815e1d4d74d222e18590610c9c908a903490611d56565b60405180910390a35090949350505050565b60606000610cbf6201518084611d1d565b610ccc9062015180611d3f565b6000818152600260209081526040918290208054835181840281018401909452808452939450919290830182828015610d2457602002820191906000526020600020905b815481526020019060010190808311610d10575b5050505050915050919050565b606081600081118015610d45575060045481105b610d615760405162461bcd60e51b815260040161051990611b3f565b60008381526020818152604080832060070180548251818502810185019093528083529193909284015b82821015610e37578382906000526020600020018054610daa90611bb9565b80601f0160208091040260200160405190810160405280929190818152602001828054610dd690611bb9565b8015610e235780601f10610df857610100808354040283529160200191610e23565b820191906000526020600020905b815481529060010190602001808311610e0657829003601f168201915b505050505081526020019060010190610d8b565b5050505091505b50919050565b6006546001600160a01b03163314610eae5760405162461bcd60e51b815260206004820152602760248201527f4f6e6c792063757272656e74207374616b696e67206d616e616765722063616e6044820152662075706461746560c81b6064820152608401610519565b600680546001600160a01b038381166001600160a01b031983168117909355604080519190921680825260208201939093527ffc41361c635b6262e073924c72e696204153eb6184c227b8f8241df5bcc96d37910160405180910390a15050565b600360209081526000928352604080842090915290825290208054610f3390611bb9565b80601f0160208091040260200160405190810160405280929190818152602001828054610f5f90611bb9565b8015610fac5780601f10610f8157610100808354040283529160200191610fac565b820191906000526020600020905b815481529060010190602001808311610f8f57829003601f168201915b505050505081565b6000808211801561092d5750506004541190565b610fd061155f565b81600081118015610fe2575060045481105b610ffe5760405162461bcd60e51b815260040161051990611b3f565b600083815260208181526040918290208251610120810184528154815260018201546001600160a01b031692810192909252600281018054929391929184019161104790611bb9565b80601f016020809104026020016040519081016040528092919081815260200182805461107390611bb9565b80156110c05780601f10611095576101008083540402835291602001916110c0565b820191906000526020600020905b8154815290600101906020018083116110a357829003601f168201915b50505091835250506003828101546020830152600483015460409092019160ff16908111156110f1576110f161190d565b60038111156111025761110261190d565b8152602001600582015481526020016006820154815260200160078201805480602002602001604051908101604052809291908181526020016000905b828210156111eb57838290600052602060002001805461115e90611bb9565b80601f016020809104026020016040519081016040528092919081815260200182805461118a90611bb9565b80156111d75780601f106111ac576101008083540402835291602001916111d7565b820191906000526020600020905b8154815290600101906020018083116111ba57829003601f168201915b50505050508152602001906001019061113f565b50505050815260200160088201805461120390611bb9565b80601f016020809104026020016040519081016040528092919081815260200182805461122f90611bb9565b801561127c5780601f106112515761010080835404028352916020019161127c565b820191906000526020600020905b81548152906001019060200180831161125f57829003601f168201915b505050505081525050915050919050565b6006546001600160a01b031633146112b75760405162461bcd60e51b815260040161051990611afd565b6006546040516001600160a01b03909116904780156108fc02916000818181858888f193505050501580156112f0573d6000803e3d6000fd5b50565b60006020819052908152604090208054600182015460028301805492936001600160a01b039092169261132590611bb9565b80601f016020809104026020016040519081016040528092919081815260200182805461135190611bb9565b801561139e5780601f106113735761010080835404028352916020019161139e565b820191906000526020600020905b81548152906001019060200180831161138157829003601f168201915b50505060038401546004850154600586015460068701546008880180549798949760ff909416965091945092916113d490611bb9565b80601f016020809104026020016040519081016040528092919081815260200182805461140090611bb9565b801561144d5780601f106114225761010080835404028352916020019161144d565b820191906000526020600020905b81548152906001019060200180831161143057829003601f168201915b5050505050905088565b600160205281600052604060002081815481106105c557600080fd5b60008281526020819052604090206001015482906001600160a01b031633146114d75760405162461bcd60e51b81526020600482015260166024820152752737ba103a34329030b93a34b1b6329030baba3437b960511b6044820152606401610519565b826000811180156114e9575060045481105b6115055760405162461bcd60e51b815260040161051990611b3f565b6000848152602081815260408220600701805460018101825590835291200161152e8482611c3c565b50837f41cb2bcb31dda1061b50a710e06b01ad9f9db0205241852241a0bde064cc2c4f8460405161059b919061171e565b6040518061012001604052806000815260200160006001600160a01b031681526020016060815260200160008152602001600060038111156115a3576115a361190d565b8152602001600081526020016000815260200160608152602001606081525090565b80356001600160a01b03811681146115dc57600080fd5b919050565b6000602082840312156115f357600080fd5b6115fc826115c5565b9392505050565b6020808252825182820181905260009190848201906040850190845b8181101561163b5783518352928401929184019160010161161f565b50909695505050505050565b6000806040838503121561165a57600080fd5b50508035926020909101359150565b60006020828403121561167b57600080fd5b5035919050565b8035600481106115dc57600080fd5b6000602082840312156116a357600080fd5b6115fc82611682565b600080604083850312156116bf57600080fd5b823591506116cf60208401611682565b90509250929050565b6000815180845260005b818110156116fe576020818501810151868301820152016116e2565b506000602082860101526020601f19601f83011685010191505092915050565b6020815260006115fc60208301846116d8565b634e487b7160e01b600052604160045260246000fd5b600082601f83011261175857600080fd5b813567ffffffffffffffff8082111561177357611773611731565b604051601f8301601f19908116603f0116810190828211818310171561179b5761179b611731565b816040528381528660208588010111156117b457600080fd5b836020870160208301376000602085830101528094505050505092915050565b6000806000606084860312156117e957600080fd5b83359250602084013567ffffffffffffffff8082111561180857600080fd5b61181487838801611747565b9350604086013591508082111561182a57600080fd5b5061183786828701611747565b9150509250925092565b6000806040838503121561185457600080fd5b823567ffffffffffffffff8082111561186c57600080fd5b61187886838701611747565b9350602085013591508082111561188e57600080fd5b5061189b85828601611747565b9150509250929050565b600081518084526020808501808196508360051b8101915082860160005b858110156118ed5782840389526118db8483516116d8565b988501989350908401906001016118c3565b5091979650505050505050565b6020815260006115fc60208301846118a5565b634e487b7160e01b600052602160045260246000fd5b6004811061194157634e487b7160e01b600052602160045260246000fd5b9052565b60208152815160208201526000602083015161196c60408401826001600160a01b03169052565b5060408301516101208060608501526119896101408501836116d8565b91506060850151608085015260808501516119a760a0860182611923565b5060a085015160c085015260c085015160e085015260e0850151601f196101008187860301818801526119da85846118a5565b9088015187820390920184880152935090506119f683826116d8565b9695505050505050565b8881526001600160a01b038816602082015261010060408201819052600090611a2b8382018a6116d8565b9050876060840152611a406080840188611923565b8560a08401528460c084015282810360e0840152611a5e81856116d8565b9b9a5050505050505050505050565b60008060408385031215611a8057600080fd5b611a89836115c5565b946020939093013593505050565b60008060408385031215611aaa57600080fd5b82359150602083013567ffffffffffffffff811115611ac857600080fd5b61189b85828601611747565b634e487b7160e01b600052601160045260246000fd5b8181038181111561092d5761092d611ad4565b60208082526022908201527f4f6e6c79207374616b696e67206d616e616765722063616e2063616c6c207468604082015261697360f01b606082015260800190565b602080825260169082015275105c9d1a58db1948191bd95cc81b9bdd08195e1a5cdd60521b604082015260600190565b600060018201611b8157611b81611ad4565b5060010190565b634e487b7160e01b600052603260045260246000fd5b60408101611bac8285611923565b6115fc6020830184611923565b600181811c90821680611bcd57607f821691505b602082108103610e3e57634e487b7160e01b600052602260045260246000fd5b601f821115611c3757600081815260208120601f850160051c81016020861015611c145750805b601f850160051c820191505b81811015611c3357828155600101611c20565b5050505b505050565b815167ffffffffffffffff811115611c5657611c56611731565b611c6a81611c648454611bb9565b84611bed565b602080601f831160018114611c9f5760008415611c875750858301515b600019600386901b1c1916600185901b178555611c33565b600085815260208120601f198616915b82811015611cce57888601518255948401946001909101908401611caf565b5085821015611cec5787850151600019600388901b60f8161c191681555b5050505050600190811b01905550565b828152604060208201526000611d1560408301846116d8565b949350505050565b600082611d3a57634e487b7160e01b600052601260045260246000fd5b500490565b808202811582820484141761092d5761092d611ad4565b604081526000611d6960408301856116d8565b9050826020830152939250505056fea2646970667358221220ac2d3592cace6dc839e077c02e7054b9c27ca638749bf5459b59eda09cdbc68e64736f6c63430008130033",
  "linkReferences": {},
  "deployedLinkReferences": {}
}