{
  "_format": "hh-sol-artifact-1",
  "contractName": "UserRegistry",
  "sourceName": "contracts/users/UserRegistery.sol",
  "abi": [
    {
      "inputs": [
        {
          "internalType": "address",
          "name": "_accessManager",
          "type": "address"
        },
        {
          "internalType": "address",
          "name": "_freePressToken",
          "type": "address"
        }
      ],
      "stateMutability": "nonpayable",
      "type": "constructor"
    },
    {
      "inputs": [],
      "name": "AlreadyJournalist",
      "type": "error"
    },
    {
      "inputs": [],
      "name": "AlreadyRegistered",
      "type": "error"
    },
    {
      "inputs": [],
      "name": "InvalidAddress",
      "type": "error"
    },
    {
      "inputs": [],
      "name": "InvalidURI",
      "type": "error"
    },
    {
      "inputs": [],
      "name": "NotJournalist",
      "type": "error"
    },
    {
      "inputs": [],
      "name": "NotRegistered",
      "type": "error"
    },
    {
      "inputs": [],
      "name": "OnlyAuthorizedContract",
      "type": "error"
    },
    {
      "inputs": [],
      "name": "OnlyOwner",
      "type": "error"
    },
    {
      "inputs": [],
      "name": "OnlySelfVerification",
      "type": "error"
    },
    {
      "anonymous": false,
      "inputs": [
        {
          "indexed": true,
          "internalType": "address",
          "name": "journalist",
          "type": "address"
        },
        {
          "indexed": false,
          "internalType": "string",
          "name": "credentialsURI",
          "type": "string"
        }
      ],
      "name": "JournalistVerified",
      "type": "event"
    },
    {
      "anonymous": false,
      "inputs": [
        {
          "indexed": true,
          "internalType": "address",
          "name": "user",
          "type": "address"
        },
        {
          "indexed": false,
          "internalType": "string",
          "name": "newMetadataURI",
          "type": "string"
        }
      ],
      "name": "ProfileUpdated",
      "type": "event"
    },
    {
      "anonymous": false,
      "inputs": [
        {
          "indexed": true,
          "internalType": "address",
          "name": "user",
          "type": "address"
        },
        {
          "indexed": false,
          "internalType": "int256",
          "name": "change",
          "type": "int256"
        },
        {
          "indexed": false,
          "internalType": "uint256",
          "name": "newReputation",
          "type": "uint256"
        }
      ],
      "name": "ReputationUpdated",
      "type": "event"
    },
    {
      "anonymous": false,
      "inputs": [
        {
          "indexed": true,
          "internalType": "address",
          "name": "newContract",
          "type": "address"
        }
      ],
      "name": "SelfVerificationContractUpdated",
      "type": "event"
    },
    {
      "anonymous": false,
      "inputs": [
        {
          "indexed": true,
          "internalType": "address",
          "name": "user",
          "type": "address"
        },
        {
          "indexed": false,
          "internalType": "uint256",
          "name": "timestamp",
          "type": "uint256"
        },
        {
          "indexed": false,
          "internalType": "string",
          "name": "name",
          "type": "string"
        },
        {
          "indexed": false,
          "internalType": "string",
          "name": "nationality",
          "type": "string"
        },
        {
          "indexed": false,
          "internalType": "string",
          "name": "dateOfBirth",
          "type": "string"
        }
      ],
      "name": "UserRegistered",
      "type": "event"
    },
    {
      "inputs": [],
      "name": "accessManager",
      "outputs": [
        {
          "internalType": "contract IAccessManager",
          "name": "",
          "type": "address"
        }
      ],
      "stateMutability": "view",
      "type": "function"
    },
    {
      "inputs": [
        {
          "internalType": "string",
          "name": "credentialsURI",
          "type": "string"
        }
      ],
      "name": "applyForJournalist",
      "outputs": [],
      "stateMutability": "nonpayable",
      "type": "function"
    },
    {
      "inputs": [
        {
          "internalType": "address",
          "name": "userAddress",
          "type": "address"
        },
        {
          "internalType": "string",
          "name": "_name",
          "type": "string"
        },
        {
          "internalType": "string",
          "name": "_nationality",
          "type": "string"
        },
        {
          "internalType": "string",
          "name": "_dateOfBirth",
          "type": "string"
        }
      ],
      "name": "completeUserData",
      "outputs": [],
      "stateMutability": "nonpayable",
      "type": "function"
    },
    {
      "inputs": [
        {
          "internalType": "address",
          "name": "",
          "type": "address"
        }
      ],
      "name": "dateOfBirth",
      "outputs": [
        {
          "internalType": "string",
          "name": "",
          "type": "string"
        }
      ],
      "stateMutability": "view",
      "type": "function"
    },
    {
      "inputs": [],
      "name": "freePressToken",
      "outputs": [
        {
          "internalType": "contract IFreePressToken",
          "name": "",
          "type": "address"
        }
      ],
      "stateMutability": "view",
      "type": "function"
    },
    {
      "inputs": [
        {
          "internalType": "address",
          "name": "user",
          "type": "address"
        }
      ],
      "name": "getJournalistApplication",
      "outputs": [
        {
          "internalType": "bool",
          "name": "",
          "type": "bool"
        },
        {
          "internalType": "string",
          "name": "",
          "type": "string"
        },
        {
          "internalType": "uint256",
          "name": "",
          "type": "uint256"
        }
      ],
      "stateMutability": "view",
      "type": "function"
    },
    {
      "inputs": [
        {
          "internalType": "address",
          "name": "user",
          "type": "address"
        }
      ],
      "name": "getUserIdentity",
      "outputs": [
        {
          "internalType": "string",
          "name": "",
          "type": "string"
        },
        {
          "internalType": "string",
          "name": "",
          "type": "string"
        },
        {
          "internalType": "string",
          "name": "",
          "type": "string"
        }
      ],
      "stateMutability": "view",
      "type": "function"
    },
    {
      "inputs": [
        {
          "internalType": "address",
          "name": "user",
          "type": "address"
        }
      ],
      "name": "getUserInfo",
      "outputs": [
        {
          "internalType": "bool",
          "name": "",
          "type": "bool"
        },
        {
          "internalType": "bool",
          "name": "",
          "type": "bool"
        },
        {
          "internalType": "uint256",
          "name": "",
          "type": "uint256"
        },
        {
          "internalType": "uint256",
          "name": "",
          "type": "uint256"
        },
        {
          "internalType": "string",
          "name": "",
          "type": "string"
        },
        {
          "internalType": "string",
          "name": "",
          "type": "string"
        },
        {
          "internalType": "string",
          "name": "",
          "type": "string"
        }
      ],
      "stateMutability": "view",
      "type": "function"
    },
    {
      "inputs": [
        {
          "internalType": "address",
          "name": "",
          "type": "address"
        }
      ],
      "name": "isJournalist",
      "outputs": [
        {
          "internalType": "bool",
          "name": "",
          "type": "bool"
        }
      ],
      "stateMutability": "view",
      "type": "function"
    },
    {
      "inputs": [
        {
          "internalType": "address",
          "name": "",
          "type": "address"
        }
      ],
      "name": "isRegistered",
      "outputs": [
        {
          "internalType": "bool",
          "name": "",
          "type": "bool"
        }
      ],
      "stateMutability": "view",
      "type": "function"
    },
    {
      "inputs": [
        {
          "internalType": "address",
          "name": "",
          "type": "address"
        }
      ],
      "name": "journalistApplications",
      "outputs": [
        {
          "internalType": "bool",
          "name": "hasApplied",
          "type": "bool"
        },
        {
          "internalType": "string",
          "name": "credentialsURI",
          "type": "string"
        },
        {
          "internalType": "uint256",
          "name": "appliedAt",
          "type": "uint256"
        }
      ],
      "stateMutability": "view",
      "type": "function"
    },
    {
      "inputs": [
        {
          "internalType": "address",
          "name": "",
          "type": "address"
        }
      ],
      "name": "name",
      "outputs": [
        {
          "internalType": "string",
          "name": "",
          "type": "string"
        }
      ],
      "stateMutability": "view",
      "type": "function"
    },
    {
      "inputs": [
        {
          "internalType": "address",
          "name": "",
          "type": "address"
        }
      ],
      "name": "nationality",
      "outputs": [
        {
          "internalType": "string",
          "name": "",
          "type": "string"
        }
      ],
      "stateMutability": "view",
      "type": "function"
    },
    {
      "inputs": [],
      "name": "owner",
      "outputs": [
        {
          "internalType": "address",
          "name": "",
          "type": "address"
        }
      ],
      "stateMutability": "view",
      "type": "function"
    },
    {
      "inputs": [
        {
          "internalType": "address",
          "name": "userAddress",
          "type": "address"
        },
        {
          "internalType": "string",
          "name": "_name",
          "type": "string"
        },
        {
          "internalType": "string",
          "name": "_nationality",
          "type": "string"
        },
        {
          "internalType": "string",
          "name": "_dateOfBirth",
          "type": "string"
        }
      ],
      "name": "registerVerifiedUser",
      "outputs": [],
      "stateMutability": "nonpayable",
      "type": "function"
    },
    {
      "inputs": [
        {
          "internalType": "address",
          "name": "",
          "type": "address"
        }
      ],
      "name": "registeredAt",
      "outputs": [
        {
          "internalType": "uint256",
          "name": "",
          "type": "uint256"
        }
      ],
      "stateMutability": "view",
      "type": "function"
    },
    {
      "inputs": [],
      "name": "renounceOwnership",
      "outputs": [],
      "stateMutability": "nonpayable",
      "type": "function"
    },
    {
      "inputs": [
        {
          "internalType": "address",
          "name": "",
          "type": "address"
        }
      ],
      "name": "reputation",
      "outputs": [
        {
          "internalType": "uint256",
          "name": "",
          "type": "uint256"
        }
      ],
      "stateMutability": "view",
      "type": "function"
    },
    {
      "inputs": [],
      "name": "selfVerificationContract",
      "outputs": [
        {
          "internalType": "address",
          "name": "",
          "type": "address"
        }
      ],
      "stateMutability": "view",
      "type": "function"
    },
    {
      "inputs": [
        {
          "internalType": "address",
          "name": "_selfVerificationContract",
          "type": "address"
        }
      ],
      "name": "setSelfVerificationContract",
      "outputs": [],
      "stateMutability": "nonpayable",
      "type": "function"
    },
    {
      "inputs": [],
      "name": "totalJournalists",
      "outputs": [
        {
          "internalType": "uint256",
          "name": "",
          "type": "uint256"
        }
      ],
      "stateMutability": "view",
      "type": "function"
    },
    {
      "inputs": [],
      "name": "totalUsers",
      "outputs": [
        {
          "internalType": "uint256",
          "name": "",
          "type": "uint256"
        }
      ],
      "stateMutability": "view",
      "type": "function"
    },
    {
      "inputs": [
        {
          "internalType": "string",
          "name": "metadataURI",
          "type": "string"
        }
      ],
      "name": "updateProfile",
      "outputs": [],
      "stateMutability": "nonpayable",
      "type": "function"
    },
    {
      "inputs": [
        {
          "internalType": "address",
          "name": "user",
          "type": "address"
        },
        {
          "internalType": "int256",
          "name": "delta",
          "type": "int256"
        }
      ],
      "name": "updateReputation",
      "outputs": [],
      "stateMutability": "nonpayable",
      "type": "function"
    }
  ],
  "bytecode": "0x608060405234801561001057600080fd5b50604051611b1d380380611b1d83398101604081905261002f916100c2565b6001600160a01b038216158061004c57506001600160a01b038116155b1561006a5760405163e6c4247b60e01b815260040160405180910390fd5b600280546001600160a01b03199081163317909155600080546001600160a01b03948516908316179055600180549290931691161790556100f5565b80516001600160a01b03811681146100bd57600080fd5b919050565b600080604083850312156100d557600080fd5b6100de836100a6565b91506100ec602084016100a6565b90509250929050565b611a19806101046000396000f3fe608060405234801561001057600080fd5b50600436106101575760003560e01c80639f09e05c116100c3578063da80086d1161007c578063da80086d14610356578063e8214e0814610369578063e8d008331461037c578063e96db0ab1461038f578063ec94526914610398578063fdcb6068146103ab57600080fd5b80639f09e05c14610296578063a342d42a146102a9578063aaea3d9c146102dc578063b9f794511461030a578063bff1f9e11461032a578063c3c5a5471461033357600080fd5b80636a08b511116101155780636a08b51114610208578063715018a61461021b57806383dc0907146102235780638da5cb5b1461023657806390b30f951461026157806390ffe8a01461028357600080fd5b80629299e31461015c57806301984892146101715780632129c7611461019a57806334bd0d48146101bc5780633664c6f8146101cf5780636386c1c7146101e2575b600080fd5b61016f61016a3660046113f6565b6103be565b005b61018461017f366004611454565b610457565b60405161019191906114bc565b60405180910390f35b6101ad6101a8366004611454565b6104f1565b604051610191939291906114cf565b61016f6101ca366004611512565b610730565b61016f6101dd366004611512565b6108fa565b6101f56101f0366004611454565b610a22565b60405161019197969594939291906115c9565b61016f61021636600461162c565b610c48565b61016f610dcf565b61016f610231366004611454565b610e0c565b600254610249906001600160a01b031681565b6040516001600160a01b039091168152602001610191565b61027461026f366004611454565b610ea8565b60405161019193929190611656565b610274610291366004611454565b610f57565b6101846102a4366004611454565b611047565b6102cc6102b7366004611454565b60056020526000908152604090205460ff1681565b6040519015158152602001610191565b6102fc6102ea366004611454565b60066020526000908152604090205481565b604051908152602001610191565b6102fc610318366004611454565b60076020526000908152604090205481565b6102fc600c5481565b6102cc610341366004611454565b60046020526000908152604090205460ff1681565b600154610249906001600160a01b031681565b600354610249906001600160a01b031681565b61016f61038a3660046113f6565b611060565b6102fc600d5481565b6101846103a6366004611454565b61117d565b600054610249906001600160a01b031681565b3360009081526004602052604090205460ff166103ee5760405163aba4733960e01b815260040160405180910390fd5b600081900361041057604051633ba0191160e01b815260040160405180910390fd5b336001600160a01b03167fdd635a4cd84864e37e4479dbfc2ec667acfa473c83c8422a8ac9d9d07599b01c838360405161044b9291906116aa565b60405180910390a25050565b60086020526000908152604090208054610470906116c6565b80601f016020809104026020016040519081016040528092919081815260200182805461049c906116c6565b80156104e95780601f106104be576101008083540402835291602001916104e9565b820191906000526020600020905b8154815290600101906020018083116104cc57829003601f168201915b505050505081565b6001600160a01b0381166000908152600460205260409020546060908190819060ff166105555760405162461bcd60e51b815260206004820152600e60248201526d139bdd081c9959da5cdd195c995960921b604482015260640160405180910390fd5b6001600160a01b038416600090815260086020908152604080832060098352818420600a90935292208254839061058b906116c6565b80601f01602080910402602001604051908101604052809291908181526020018280546105b7906116c6565b80156106045780601f106105d957610100808354040283529160200191610604565b820191906000526020600020905b8154815290600101906020018083116105e757829003601f168201915b50505050509250818054610617906116c6565b80601f0160208091040260200160405190810160405280929190818152602001828054610643906116c6565b80156106905780601f1061066557610100808354040283529160200191610690565b820191906000526020600020905b81548152906001019060200180831161067357829003601f168201915b505050505091508080546106a3906116c6565b80601f01602080910402602001604051908101604052809291908181526020018280546106cf906116c6565b801561071c5780601f106106f15761010080835404028352916020019161071c565b820191906000526020600020905b8154815290600101906020018083116106ff57829003601f168201915b505050505090509250925092509193909250565b6003546001600160a01b0316331461075b5760405163ab46120d60e01b815260040160405180910390fd5b6001600160a01b03871660009081526004602052604090205460ff161561079557604051630ea075bf60e21b815260040160405180910390fd5b6001600160a01b0387166000908152600460209081526040808320805460ff199081166001179091556005909252822080549091169055600c8054916107da83611716565b9091555050600054604051631a19838f60e21b81526001600160a01b038981166004830152909116906368660e3c90602401600060405180830381600087803b15801561082657600080fd5b505af115801561083a573d6000803e3d6000fd5b50506001546040516367211e5960e11b81526001600160a01b038b8116600483015260006024830152909116925063ce423cb29150604401600060405180830381600087803b15801561088c57600080fd5b505af11580156108a0573d6000803e3d6000fd5b50505050866001600160a01b03167fe4d5d5994b65778231d78d3900fb3b6adaf0b30c1b2b6959ceecffc67ae1bbaa428888888888886040516108e9979695949392919061172f565b60405180910390a250505050505050565b6003546001600160a01b031633146109255760405163ab46120d60e01b815260040160405180910390fd5b6001600160a01b03871660009081526004602052604090205460ff1661095e5760405163aba4733960e01b815260040160405180910390fd5b6001600160a01b0387166000908152600660205260409020541561099557604051630ea075bf60e21b815260040160405180910390fd5b6001600160a01b03871660009081526006602090815260408083204290556007825280832060649055600890915290206109d08688836117d6565b506001600160a01b03871660009081526009602052604090206109f48486836117d6565b506001600160a01b0387166000908152600a60205260409020610a188284836117d6565b5050505050505050565b6001600160a01b0381166000908152600460209081526040808320546005835281842054600684528285205460078552838620546008865284872060098752858820600a90975294872085548897889788976060978897889760ff9384169793909216959094919392908390610a97906116c6565b80601f0160208091040260200160405190810160405280929190818152602001828054610ac3906116c6565b8015610b105780601f10610ae557610100808354040283529160200191610b10565b820191906000526020600020905b815481529060010190602001808311610af357829003601f168201915b50505050509250818054610b23906116c6565b80601f0160208091040260200160405190810160405280929190818152602001828054610b4f906116c6565b8015610b9c5780601f10610b7157610100808354040283529160200191610b9c565b820191906000526020600020905b815481529060010190602001808311610b7f57829003601f168201915b50505050509150808054610baf906116c6565b80601f0160208091040260200160405190810160405280929190818152602001828054610bdb906116c6565b8015610c285780601f10610bfd57610100808354040283529160200191610c28565b820191906000526020600020905b815481529060010190602001808311610c0b57829003601f168201915b505050505090509650965096509650965096509650919395979092949650565b6000546040516366d0ead360e01b81523360048201526001600160a01b03909116906366d0ead390602401602060405180830381865afa158015610c90573d6000803e3d6000fd5b505050506040513d601f19601f82011682018060405250810190610cb49190611896565b610cd157604051631ce755f560e21b815260040160405180910390fd5b6001600160a01b03821660009081526004602052604090205460ff16610d0a5760405163aba4733960e01b815260040160405180910390fd5b6001600160a01b0382166000908152600760205260408120549080831215610d59576000610d37846118b8565b9050808311610d47576000610d51565b610d5181846118d4565b915050610d74565b610d6383836118ed565b90506103e8811115610d7457506103e85b6001600160a01b03841660008181526007602090815260409182902084905581518681529081018490527f5712e29af9e0cda36f7084338830170ccb1f1c4986d27fc1d51d1f53562b9e66910160405180910390a250505050565b6002546001600160a01b03163314610dfa57604051635fc483c560e01b815260040160405180910390fd5b600280546001600160a01b0319169055565b6002546001600160a01b03163314610e3757604051635fc483c560e01b815260040160405180910390fd5b6001600160a01b038116610e5e5760405163e6c4247b60e01b815260040160405180910390fd5b600380546001600160a01b0319166001600160a01b0383169081179091556040517fa1937bbec222093094624653c783e6ded3cb93d2ea3b504a436c6bb5b211510890600090a250565b600b602052600090815260409020805460018201805460ff9092169291610ece906116c6565b80601f0160208091040260200160405190810160405280929190818152602001828054610efa906116c6565b8015610f475780601f10610f1c57610100808354040283529160200191610f47565b820191906000526020600020905b815481529060010190602001808311610f2a57829003601f168201915b5050505050908060020154905083565b6001600160a01b0381166000908152600b6020908152604080832081516060818101909352815460ff1615158152600182018054939486948594929184019190610fa0906116c6565b80601f0160208091040260200160405190810160405280929190818152602001828054610fcc906116c6565b80156110195780601f10610fee57610100808354040283529160200191611019565b820191906000526020600020905b815481529060010190602001808311610ffc57829003601f168201915b5050509183525050600291909101546020918201528151908201516040909201519097919650945092505050565b600a6020526000908152604090208054610470906116c6565b3360009081526004602052604090205460ff166110905760405163aba4733960e01b815260040160405180910390fd5b3360009081526005602052604090205460ff16156110c15760405163b825812b60e01b815260040160405180910390fd5b60008190036110e357604051633ba0191160e01b815260040160405180910390fd5b604051806060016040528060011515815260200183838080601f016020809104026020016040519081016040528093929190818152602001838380828437600092018290525093855250504260209384015250338152600b8252604090208251815460ff19169015151781559082015160018201906111629082611900565b506040820151816002015590505061117933611196565b5050565b60096020526000908152604090208054610470906116c6565b6001600160a01b0381166000908152600b60209081526040808320815160608101909252805460ff161515825260018101805492939192918401916111da906116c6565b80601f0160208091040260200160405190810160405280929190818152602001828054611206906116c6565b80156112535780601f1061122857610100808354040283529160200191611253565b820191906000526020600020905b81548152906001019060200180831161123657829003601f168201915b5050509183525050600291909101546020918201526001600160a01b0384166000908152600590915260408120805460ff19166001179055600d80549293509061129c83611716565b90915550506000546020820151604051631201fc7b60e21b81526001600160a01b0390921691634807f1ec916112d7918691906004016119bf565b600060405180830381600087803b1580156112f157600080fd5b505af1158015611305573d6000803e3d6000fd5b5050600180546040516367211e5960e11b81526001600160a01b03878116600483015260248201939093529116925063ce423cb29150604401600060405180830381600087803b15801561135857600080fd5b505af115801561136c573d6000803e3d6000fd5b50505050816001600160a01b03167fb3327e1aab957996363976797a6539d2f683e8dee9c06fa879dddd2769900687826020015160405161044b91906114bc565b60008083601f8401126113bf57600080fd5b50813567ffffffffffffffff8111156113d757600080fd5b6020830191508360208285010111156113ef57600080fd5b9250929050565b6000806020838503121561140957600080fd5b823567ffffffffffffffff81111561142057600080fd5b61142c858286016113ad565b90969095509350505050565b80356001600160a01b038116811461144f57600080fd5b919050565b60006020828403121561146657600080fd5b61146f82611438565b9392505050565b6000815180845260005b8181101561149c57602081850181015186830182015201611480565b506000602082860101526020601f19601f83011685010191505092915050565b60208152600061146f6020830184611476565b6060815260006114e26060830186611476565b82810360208401526114f48186611476565b905082810360408401526115088185611476565b9695505050505050565b60008060008060008060006080888a03121561152d57600080fd5b61153688611438565b9650602088013567ffffffffffffffff81111561155257600080fd5b61155e8a828b016113ad565b909750955050604088013567ffffffffffffffff81111561157e57600080fd5b61158a8a828b016113ad565b909550935050606088013567ffffffffffffffff8111156115aa57600080fd5b6115b68a828b016113ad565b989b979a50959850939692959293505050565b8715158152861515602082015285604082015284606082015260e0608082015260006115f860e0830186611476565b82810360a084015261160a8186611476565b905082810360c084015261161e8185611476565b9a9950505050505050505050565b6000806040838503121561163f57600080fd5b61164883611438565b946020939093013593505050565b83151581526060602082015260006116716060830185611476565b9050826040830152949350505050565b81835281816020850137506000828201602090810191909152601f909101601f19169091010190565b6020815260006116be602083018486611681565b949350505050565b600181811c908216806116da57607f821691505b6020821081036116fa57634e487b7160e01b600052602260045260246000fd5b50919050565b634e487b7160e01b600052601160045260246000fd5b60006001820161172857611728611700565b5060010190565b87815260806020820152600061174960808301888a611681565b828103604084015261175c818789611681565b9050828103606084015261161e818587611681565b634e487b7160e01b600052604160045260246000fd5b601f8211156117d157806000526020600020601f840160051c810160208510156117ae5750805b601f840160051c820191505b818110156117ce57600081556001016117ba565b50505b505050565b67ffffffffffffffff8311156117ee576117ee611771565b611802836117fc83546116c6565b83611787565b6000601f841160018114611836576000851561181e5750838201355b600019600387901b1c1916600186901b1783556117ce565b600083815260209020601f19861690835b828110156118675786850135825560209485019460019092019101611847565b50868210156118845760001960f88860031b161c19848701351681555b505060018560011b0183555050505050565b6000602082840312156118a857600080fd5b8151801515811461146f57600080fd5b6000600160ff1b82016118cd576118cd611700565b5060000390565b818103818111156118e7576118e7611700565b92915050565b808201808211156118e7576118e7611700565b815167ffffffffffffffff81111561191a5761191a611771565b61192e8161192884546116c6565b84611787565b6020601f821160018114611962576000831561194a5750848201515b600019600385901b1c1916600184901b1784556117ce565b600084815260208120601f198516915b828110156119925787850151825560209485019460019092019101611972565b50848210156119b05786840151600019600387901b60f8161c191681555b50505050600190811b01905550565b6001600160a01b03831681526040602082018190526000906116be9083018461147656fea264697066735822122017e73e17dc5f8b5c912bab6a27de0c6980f8060b2c292c6bb938ee88defd2a4564736f6c634300081c0033",
  "linkReferences": {},
  "deployedLinkReferences": {}
}